{
  "_format": "hh-sol-artifact-1",
  "contractName": "Borrow",
  "sourceName": "contracts/Borrow.sol",
  "abi": [
    {
      "inputs": [
        {
          "internalType": "address",
          "name": "collection",
          "type": "address"
        }
      ],
      "stateMutability": "nonpayable",
      "type": "constructor"
    },
    {
      "inputs": [
        {
          "internalType": "address",
          "name": "account",
          "type": "address"
        }
      ],
      "name": "AddressInsufficientBalance",
      "type": "error"
    },
    {
      "inputs": [],
      "name": "FailedInnerCall",
      "type": "error"
    },
    {
      "anonymous": false,
      "inputs": [
        {
          "indexed": true,
          "internalType": "address",
          "name": "adminstrator",
          "type": "address"
        },
        {
          "indexed": true,
          "internalType": "uint256",
          "name": "amount",
          "type": "uint256"
        }
      ],
      "name": "LiquidityAdded",
      "type": "event"
    },
    {
      "anonymous": false,
      "inputs": [
        {
          "indexed": true,
          "internalType": "address",
          "name": "collection",
          "type": "address"
        },
        {
          "indexed": true,
          "internalType": "address",
          "name": "owner",
          "type": "address"
        },
        {
          "indexed": true,
          "internalType": "uint256",
          "name": "tokenId",
          "type": "uint256"
        }
      ],
      "name": "LockNFT",
      "type": "event"
    },
    {
      "anonymous": false,
      "inputs": [
        {
          "indexed": true,
          "internalType": "address",
          "name": "account",
          "type": "address"
        },
        {
          "indexed": false,
          "internalType": "uint256",
          "name": "amount",
          "type": "uint256"
        }
      ],
      "name": "Withdrawn",
      "type": "event"
    },
    {
      "inputs": [],
      "name": "BORROW_RATE",
      "outputs": [
        {
          "internalType": "uint256",
          "name": "",
          "type": "uint256"
        }
      ],
      "stateMutability": "view",
      "type": "function"
    },
    {
      "inputs": [],
      "name": "accountBalance",
      "outputs": [
        {
          "internalType": "uint256",
          "name": "",
          "type": "uint256"
        }
      ],
      "stateMutability": "view",
      "type": "function"
    },
    {
      "inputs": [],
      "name": "addLiquidity",
      "outputs": [],
      "stateMutability": "payable",
      "type": "function"
    },
    {
      "inputs": [
        {
          "internalType": "uint256",
          "name": "tokenId",
          "type": "uint256"
        }
      ],
      "name": "borrowEthForNFT",
      "outputs": [],
      "stateMutability": "nonpayable",
      "type": "function"
    },
    {
      "inputs": [
        {
          "internalType": "address",
          "name": "collection",
          "type": "address"
        },
        {
          "internalType": "address",
          "name": "owner",
          "type": "address"
        },
        {
          "internalType": "uint256",
          "name": "tokenId",
          "type": "uint256"
        }
      ],
      "name": "generateBorrowId",
      "outputs": [
        {
          "internalType": "bytes32",
          "name": "borrowId",
          "type": "bytes32"
        }
      ],
      "stateMutability": "pure",
      "type": "function"
    },
    {
      "inputs": [],
      "name": "getLiquidity",
      "outputs": [
        {
          "internalType": "uint256",
          "name": "",
          "type": "uint256"
        }
      ],
      "stateMutability": "view",
      "type": "function"
    },
    {
      "inputs": [
        {
          "internalType": "address",
          "name": "",
          "type": "address"
        },
        {
          "internalType": "address",
          "name": "",
          "type": "address"
        },
        {
          "internalType": "uint256",
          "name": "",
          "type": "uint256"
        },
        {
          "internalType": "bytes",
          "name": "",
          "type": "bytes"
        }
      ],
      "name": "onERC721Received",
      "outputs": [
        {
          "internalType": "bytes4",
          "name": "",
          "type": "bytes4"
        }
      ],
      "stateMutability": "nonpayable",
      "type": "function"
    },
    {
      "inputs": [],
      "name": "withdraw",
      "outputs": [],
      "stateMutability": "nonpayable",
      "type": "function"
    }
  ],
  "bytecode": "0x608060405234801561001057600080fd5b506040516108ad3803806108ad83398101604081905261002f91610054565b600380546001600160a01b0319166001600160a01b0392909216919091179055610084565b60006020828403121561006657600080fd5b81516001600160a01b038116811461007d57600080fd5b9392505050565b61081a806100936000396000f3fe60806040526004361061007b5760003560e01c80636a0c1c7e1161004e5780636a0c1c7e14610119578063b0a1c1c414610139578063c76a4f751461015b578063e8078d941461017b57600080fd5b80630910a51014610080578063150b7a02146100a45780633ccfd60b146100e8578063602839db146100ff575b600080fd5b34801561008c57600080fd5b506000545b6040519081526020015b60405180910390f35b3480156100b057600080fd5b506100cf6100bf36600461066d565b630a85bd0160e11b949350505050565b6040516001600160e01b0319909116815260200161009b565b3480156100f457600080fd5b506100fd610183565b005b34801561010b57600080fd5b50610091655af3107a400081565b34801561012557600080fd5b5061009161013436600461074d565b610253565b34801561014557600080fd5b5033600090815260016020526040902054610091565b34801561016757600080fd5b506100fd61017636600461078e565b6102a5565b6100fd61055e565b336000908152600160205260409020546101db5760405162461bcd60e51b8152602060048201526014602482015273494e53554646494349454e545f42414c414e434560601b60448201526064015b60405180910390fd5b3360009081526001602090815260408083208054908490556002909252822080549192839261020b9084906107bd565b9091555061021b905033826105a3565b60405181815233907f7084f5476618d8e60b11ef0d7d3f06914655adb8793e28ff7f018d4c76d505d59060200160405180910390a250565b6040516bffffffffffffffffffffffff19606085811b821660208401526034830184905284901b1660548201526000906068016040516020818303038152906040528051906020012090509392505050565b336003546040516331a9108f60e11b8152600481018490526001600160a01b039283169290911690636352211e90602401602060405180830381865afa1580156102f3573d6000803e3d6000fd5b505050506040513d601f19601f8201168201806040525081019061031791906107d6565b6001600160a01b0316146103615760405162461bcd60e51b815260206004820152601160248201527024a72b20a624a22fa7232a2fa7aba722a960791b60448201526064016101d2565b655af3107a400060005410156103b25760405162461bcd60e51b8152602060048201526016602482015275494e53554646494349454e545f4c495155494449545960501b60448201526064016101d2565b655af3107a40006000808282546103c991906107fa565b90915550503360009081526001602052604081208054655af3107a400092906103f39084906107bd565b9091555050600354600090610412906001600160a01b03163384610253565b6040805160a081018252828152600380546001600160a01b0390811660208085019182528486018981523360608701818152655af3107a40006080890190815260008b8152600495869052999099209751885593516001880180549187166001600160a01b0319928316179055915160028801559251868601805491861691909216179055945193909401929092555492935091909116906323b872dd906040516001600160e01b031960e084901b1681526001600160a01b03909116600482015230602482015260448101859052606401600060405180830381600087803b1580156104fe57600080fd5b505af1158015610512573d6000803e3d6000fd5b505050508161051e3390565b6003546040516001600160a01b0392831692909116907ff8d337eb9a0f72a76c136928cb508cec0b2c4bc8dc51fbf921e0f354bda518df90600090a45050565b3460008082825461056f91906107bd565b9091555050604051349033907fc17cea59c2955cb181b03393209566960365771dbba9dc3d510180e7cb31208890600090a3565b804710156105c65760405163cd78605960e01b81523060048201526024016101d2565b6000826001600160a01b03168260405160006040518083038185875af1925050503d8060008114610613576040519150601f19603f3d011682016040523d82523d6000602084013e610618565b606091505b505090508061063a57604051630a12f52160e11b815260040160405180910390fd5b505050565b6001600160a01b038116811461065457600080fd5b50565b634e487b7160e01b600052604160045260246000fd5b6000806000806080858703121561068357600080fd5b843561068e8161063f565b9350602085013561069e8161063f565b925060408501359150606085013567ffffffffffffffff808211156106c257600080fd5b818701915087601f8301126106d657600080fd5b8135818111156106e8576106e8610657565b604051601f8201601f19908116603f0116810190838211818310171561071057610710610657565b816040528281528a602084870101111561072957600080fd5b82602086016020830137600060208483010152809550505050505092959194509250565b60008060006060848603121561076257600080fd5b833561076d8161063f565b9250602084013561077d8161063f565b929592945050506040919091013590565b6000602082840312156107a057600080fd5b5035919050565b634e487b7160e01b600052601160045260246000fd5b808201808211156107d0576107d06107a7565b92915050565b6000602082840312156107e857600080fd5b81516107f38161063f565b9392505050565b818103818111156107d0576107d06107a756fea164736f6c6343000814000a",
  "linkReferences": {},
  "deployedLinkReferences": {}
}